S01B00005457495F426569737069656C5F4D61737465722E73726563BE
S113000012C019C018C017C016C015C014C013C040
S113001012C011C010C00FC00EC00DC00CC00BC068
S11300200AC009C008C011241FBECFE5D4E0DEBF5A
S1130030CDBF6DD0ABC0E4CF84EA86BF06B607FE61
S1130040FDCF81B1887F089581E983B984E886BFB3
S113005006B607FEFDCF81B1887F089580E983B994
S113006084E886BF06B607FEFDCF81B1887F089578
S113007083B984E886BF06B607FEFDCF81B1887FC9
S1130080089584EC86BF06B607FEFDCF83B10895BC
S113009084E886BF06B607FEFDCF83B1089587E1E5
S11300A089B988E18AB986E880BD08955D9BFECF51
S11300B08CB90895CF93DF93D82F89E2D89F812DEF
S11300C0112482958F70805DF1DF9DECD99FC12D45
S11300D01124C695C695C695C99F912D1124969550
S11300E096959695990F892F880F880F980F8C2FC6
S11300F0891B805DDBDFCC0F8C2F880F880FC80F26
S11301008D2F8C1B805DD2DFDF91CF91089581B359
S11301108C6181BB8AE080B911B8C1DF04E910E1C8
S11301208BDF883009F0929A99DF883109F0929A2E
S113013080E09EDF883209F0929A7EDF803109F0F8
S1130140929A82DF803409F0929A9BDFD82FA0DF45
S1130150C82F06BF8D2FAEDFCC232CF48EE2A6DF92
S113016085E3A4DF04C08EE2A1DF80E39FDF8AE0A1
S11301709DDF2FEF8FE39BE0215080409040E1F71B
S113018000C0000082B3812782BBCACFF894FFCF9E
S9030000FC
